{
  "_format": "hh-sol-artifact-1",
  "contractName": "StreakBeastCore",
  "sourceName": "contracts/StreakBeastCore.sol",
  "abi": [
    {
      "inputs": [
        {
          "internalType": "address",
          "name": "_agent",
          "type": "address"
        }
      ],
      "stateMutability": "nonpayable",
      "type": "constructor"
    },
    {
      "inputs": [],
      "name": "ReentrancyGuardReentrantCall",
      "type": "error"
    },
    {
      "anonymous": false,
      "inputs": [
        {
          "indexed": true,
          "internalType": "uint256",
          "name": "habitId",
          "type": "uint256"
        },
        {
          "indexed": false,
          "internalType": "uint256",
          "name": "streak",
          "type": "uint256"
        }
      ],
      "name": "CheckedIn",
      "type": "event"
    },
    {
      "anonymous": false,
      "inputs": [
        {
          "indexed": true,
          "internalType": "uint256",
          "name": "poolId",
          "type": "uint256"
        },
        {
          "indexed": false,
          "internalType": "uint256",
          "name": "totalRewards",
          "type": "uint256"
        }
      ],
      "name": "Distributed",
      "type": "event"
    },
    {
      "anonymous": false,
      "inputs": [
        {
          "indexed": true,
          "internalType": "address",
          "name": "user",
          "type": "address"
        },
        {
          "indexed": false,
          "internalType": "uint256",
          "name": "poolId",
          "type": "uint256"
        },
        {
          "indexed": false,
          "internalType": "uint256",
          "name": "amount",
          "type": "uint256"
        }
      ],
      "name": "RewardClaimed",
      "type": "event"
    },
    {
      "anonymous": false,
      "inputs": [
        {
          "indexed": true,
          "internalType": "address",
          "name": "user",
          "type": "address"
        },
        {
          "indexed": false,
          "internalType": "uint256",
          "name": "habitId",
          "type": "uint256"
        },
        {
          "indexed": false,
          "internalType": "uint8",
          "name": "habitType",
          "type": "uint8"
        },
        {
          "indexed": false,
          "internalType": "uint256",
          "name": "amount",
          "type": "uint256"
        },
        {
          "indexed": false,
          "internalType": "uint256",
          "name": "duration",
          "type": "uint256"
        }
      ],
      "name": "Staked",
      "type": "event"
    },
    {
      "anonymous": false,
      "inputs": [
        {
          "indexed": true,
          "internalType": "uint256",
          "name": "habitId",
          "type": "uint256"
        },
        {
          "indexed": false,
          "internalType": "uint256",
          "name": "finalStreak",
          "type": "uint256"
        }
      ],
      "name": "StreakBroken",
      "type": "event"
    },
    {
      "inputs": [],
      "name": "agent",
      "outputs": [
        {
          "internalType": "address",
          "name": "",
          "type": "address"
        }
      ],
      "stateMutability": "view",
      "type": "function"
    },
    {
      "inputs": [
        {
          "internalType": "uint256",
          "name": "habitId",
          "type": "uint256"
        },
        {
          "internalType": "bytes",
          "name": "proof",
          "type": "bytes"
        }
      ],
      "name": "checkIn",
      "outputs": [],
      "stateMutability": "nonpayable",
      "type": "function"
    },
    {
      "inputs": [
        {
          "internalType": "uint256",
          "name": "poolId",
          "type": "uint256"
        }
      ],
      "name": "claimReward",
      "outputs": [],
      "stateMutability": "nonpayable",
      "type": "function"
    },
    {
      "inputs": [
        {
          "internalType": "uint256",
          "name": "poolId",
          "type": "uint256"
        }
      ],
      "name": "distribute",
      "outputs": [],
      "stateMutability": "nonpayable",
      "type": "function"
    },
    {
      "inputs": [
        {
          "internalType": "uint256",
          "name": "habitId",
          "type": "uint256"
        }
      ],
      "name": "getHabit",
      "outputs": [
        {
          "components": [
            {
              "internalType": "address",
              "name": "user",
              "type": "address"
            },
            {
              "internalType": "uint8",
              "name": "habitType",
              "type": "uint8"
            },
            {
              "internalType": "uint256",
              "name": "stakeAmount",
              "type": "uint256"
            },
            {
              "internalType": "uint256",
              "name": "startTime",
              "type": "uint256"
            },
            {
              "internalType": "uint256",
              "name": "duration",
              "type": "uint256"
            },
            {
              "internalType": "uint256",
              "name": "currentStreak",
              "type": "uint256"
            },
            {
              "internalType": "uint256",
              "name": "longestStreak",
              "type": "uint256"
            },
            {
              "internalType": "uint256",
              "name": "lastCheckIn",
              "type": "uint256"
            },
            {
              "internalType": "bool",
              "name": "active",
              "type": "bool"
            },
            {
              "internalType": "bool",
              "name": "claimed",
              "type": "bool"
            }
          ],
          "internalType": "struct StreakBeastCore.Habit",
          "name": "",
          "type": "tuple"
        }
      ],
      "stateMutability": "view",
      "type": "function"
    },
    {
      "inputs": [
        {
          "internalType": "uint256",
          "name": "poolId",
          "type": "uint256"
        }
      ],
      "name": "getLeaderboard",
      "outputs": [
        {
          "internalType": "address[]",
          "name": "",
          "type": "address[]"
        }
      ],
      "stateMutability": "view",
      "type": "function"
    },
    {
      "inputs": [
        {
          "internalType": "uint256",
          "name": "poolId",
          "type": "uint256"
        }
      ],
      "name": "getPool",
      "outputs": [
        {
          "components": [
            {
              "internalType": "uint8",
              "name": "habitType",
              "type": "uint8"
            },
            {
              "internalType": "uint256",
              "name": "totalStaked",
              "type": "uint256"
            },
            {
              "internalType": "uint256",
              "name": "startTime",
              "type": "uint256"
            },
            {
              "internalType": "uint256",
              "name": "duration",
              "type": "uint256"
            },
            {
              "internalType": "uint256",
              "name": "totalSuccessfulStreaks",
              "type": "uint256"
            },
            {
              "internalType": "bool",
              "name": "distributed",
              "type": "bool"
            },
            {
              "internalType": "address[]",
              "name": "participants",
              "type": "address[]"
            }
          ],
          "internalType": "struct StreakBeastCore.Pool",
          "name": "",
          "type": "tuple"
        }
      ],
      "stateMutability": "view",
      "type": "function"
    },
    {
      "inputs": [
        {
          "internalType": "uint256",
          "name": "poolId",
          "type": "uint256"
        },
        {
          "internalType": "address",
          "name": "user",
          "type": "address"
        }
      ],
      "name": "getRewardBalance",
      "outputs": [
        {
          "internalType": "uint256",
          "name": "",
          "type": "uint256"
        }
      ],
      "stateMutability": "view",
      "type": "function"
    },
    {
      "inputs": [
        {
          "internalType": "uint256",
          "name": "habitId",
          "type": "uint256"
        }
      ],
      "name": "getStreak",
      "outputs": [
        {
          "internalType": "uint256",
          "name": "",
          "type": "uint256"
        }
      ],
      "stateMutability": "view",
      "type": "function"
    },
    {
      "inputs": [
        {
          "internalType": "address",
          "name": "user",
          "type": "address"
        }
      ],
      "name": "getUserHabits",
      "outputs": [
        {
          "internalType": "uint256[]",
          "name": "",
          "type": "uint256[]"
        }
      ],
      "stateMutability": "view",
      "type": "function"
    },
    {
      "inputs": [
        {
          "internalType": "uint256",
          "name": "",
          "type": "uint256"
        }
      ],
      "name": "habits",
      "outputs": [
        {
          "internalType": "address",
          "name": "user",
          "type": "address"
        },
        {
          "internalType": "uint8",
          "name": "habitType",
          "type": "uint8"
        },
        {
          "internalType": "uint256",
          "name": "stakeAmount",
          "type": "uint256"
        },
        {
          "internalType": "uint256",
          "name": "startTime",
          "type": "uint256"
        },
        {
          "internalType": "uint256",
          "name": "duration",
          "type": "uint256"
        },
        {
          "internalType": "uint256",
          "name": "currentStreak",
          "type": "uint256"
        },
        {
          "internalType": "uint256",
          "name": "longestStreak",
          "type": "uint256"
        },
        {
          "internalType": "uint256",
          "name": "lastCheckIn",
          "type": "uint256"
        },
        {
          "internalType": "bool",
          "name": "active",
          "type": "bool"
        },
        {
          "internalType": "bool",
          "name": "claimed",
          "type": "bool"
        }
      ],
      "stateMutability": "view",
      "type": "function"
    },
    {
      "inputs": [],
      "name": "nextHabitId",
      "outputs": [
        {
          "internalType": "uint256",
          "name": "",
          "type": "uint256"
        }
      ],
      "stateMutability": "view",
      "type": "function"
    },
    {
      "inputs": [],
      "name": "nextPoolId",
      "outputs": [
        {
          "internalType": "uint256",
          "name": "",
          "type": "uint256"
        }
      ],
      "stateMutability": "view",
      "type": "function"
    },
    {
      "inputs": [],
      "name": "owner",
      "outputs": [
        {
          "internalType": "address",
          "name": "",
          "type": "address"
        }
      ],
      "stateMutability": "view",
      "type": "function"
    },
    {
      "inputs": [
        {
          "internalType": "uint256",
          "name": "",
          "type": "uint256"
        },
        {
          "internalType": "uint256",
          "name": "",
          "type": "uint256"
        }
      ],
      "name": "poolHabits",
      "outputs": [
        {
          "internalType": "uint256",
          "name": "",
          "type": "uint256"
        }
      ],
      "stateMutability": "view",
      "type": "function"
    },
    {
      "inputs": [
        {
          "internalType": "uint256",
          "name": "",
          "type": "uint256"
        }
      ],
      "name": "pools",
      "outputs": [
        {
          "internalType": "uint8",
          "name": "habitType",
          "type": "uint8"
        },
        {
          "internalType": "uint256",
          "name": "totalStaked",
          "type": "uint256"
        },
        {
          "internalType": "uint256",
          "name": "startTime",
          "type": "uint256"
        },
        {
          "internalType": "uint256",
          "name": "duration",
          "type": "uint256"
        },
        {
          "internalType": "uint256",
          "name": "totalSuccessfulStreaks",
          "type": "uint256"
        },
        {
          "internalType": "bool",
          "name": "distributed",
          "type": "bool"
        }
      ],
      "stateMutability": "view",
      "type": "function"
    },
    {
      "inputs": [
        {
          "internalType": "uint256",
          "name": "",
          "type": "uint256"
        },
        {
          "internalType": "address",
          "name": "",
          "type": "address"
        }
      ],
      "name": "rewardBalances",
      "outputs": [
        {
          "internalType": "uint256",
          "name": "",
          "type": "uint256"
        }
      ],
      "stateMutability": "view",
      "type": "function"
    },
    {
      "inputs": [
        {
          "internalType": "address",
          "name": "newAgent",
          "type": "address"
        }
      ],
      "name": "setAgent",
      "outputs": [],
      "stateMutability": "nonpayable",
      "type": "function"
    },
    {
      "inputs": [
        {
          "internalType": "uint8",
          "name": "habitType",
          "type": "uint8"
        },
        {
          "internalType": "uint256",
          "name": "durationDays",
          "type": "uint256"
        }
      ],
      "name": "stake",
      "outputs": [],
      "stateMutability": "payable",
      "type": "function"
    },
    {
      "inputs": [
        {
          "internalType": "address",
          "name": "",
          "type": "address"
        },
        {
          "internalType": "uint256",
          "name": "",
          "type": "uint256"
        }
      ],
      "name": "userHabits",
      "outputs": [
        {
          "internalType": "uint256",
          "name": "",
          "type": "uint256"
        }
      ],
      "stateMutability": "view",
      "type": "function"
    }
  ],
  "bytecode": "0x608060405234801561001057600080fd5b5060405162001ed138038062001ed1833981016040819052610031916100cb565b60016000556001600160a01b0381166100905760405162461bcd60e51b815260206004820152601560248201527f496e76616c6964206167656e7420616464726573730000000000000000000000604482015260640160405180910390fd5b60018054336001600160a01b0319918216178255600280549091166001600160a01b03939093169290921790915560088190556009556100fb565b6000602082840312156100dd57600080fd5b81516001600160a01b03811681146100f457600080fd5b9392505050565b611dc6806200010b6000396000f3fe60806040526004361061011f5760003560e01c806391c05b0b116100a0578063b1674d6711610064578063b1674d671461049b578063bcf685ed146104bb578063dd752e55146104db578063f0c7a362146104ee578063f5ff5c761461050e57600080fd5b806391c05b0b146102ce5780639f1f17ea146102f0578063a34b46fe146103c6578063ac4afa38146103f3578063ae169a501461047b57600080fd5b80633847b411116100e75780633847b411146102065780633bfbc0b81461022657806343334dce1461025357806372cfb0cf146102805780638da5cb5b1461029657600080fd5b8063068bcd8d14610124578063113d465c1461015a57806318e56131146101985780632ea1f5bd146101ae57806337b4a43e146101e6575b600080fd5b34801561013057600080fd5b5061014461013f36600461195d565b61052e565b6040516101519190611976565b60405180910390f35b34801561016657600080fd5b5061018a61017536600461195d565b60009081526003602052604090206004015490565b604051908152602001610151565b3480156101a457600080fd5b5061018a60095481565b3480156101ba57600080fd5b5061018a6101c9366004611a30565b600760209081526000928352604080842090915290825290205481565b3480156101f257600080fd5b5061018a610201366004611a5c565b610631565b34801561021257600080fd5b5061018a610221366004611a30565b610662565b34801561023257600080fd5b5061024661024136600461195d565b61068c565b6040516101519190611a7e565b34801561025f57600080fd5b5061027361026e366004611b08565b61078f565b6040516101519190611b2a565b34801561028c57600080fd5b5061018a60085481565b3480156102a257600080fd5b506001546102b6906001600160a01b031681565b6040516001600160a01b039091168152602001610151565b3480156102da57600080fd5b506102ee6102e936600461195d565b6107fb565b005b3480156102fc57600080fd5b5061036c61030b36600461195d565b6003602081905260009182526040909120805460018201546002830154938301546004840154600585015460068601546007909601546001600160a01b0386169760ff600160a01b909704871697959690959180821691610100909104168a565b604080516001600160a01b03909b168b5260ff90991660208b0152978901969096526060880194909452608087019290925260a086015260c085015260e08401521515610100830152151561012082015261014001610151565b3480156103d257600080fd5b506103e66103e136600461195d565b610b74565b6040516101519190611b6e565b3480156103ff57600080fd5b5061044861040e36600461195d565b600460208190526000918252604090912080546001820154600283015460038401549484015460059094015460ff93841695929491931686565b6040805160ff909716875260208701959095529385019290925260608401526080830152151560a082015260c001610151565b34801561048757600080fd5b506102ee61049636600461195d565b610ed2565b3480156104a757600080fd5b506102ee6104b6366004611baf565b61101d565b3480156104c757600080fd5b506102ee6104d6366004611b08565b61123d565b6102ee6104e9366004611c2b565b611311565b3480156104fa57600080fd5b5061018a610509366004611c5d565b6116a2565b34801561051a57600080fd5b506002546102b6906001600160a01b031681565b6105736040518060e00160405280600060ff16815260200160008152602001600081526020016000815260200160008152602001600015158152602001606081525090565b600082815260046020818152604092839020835160e081018552815460ff9081168252600183015482850152600283015482870152600383015460608301529382015460808201526005820154909316151560a08401526006810180548551818502810185019096528086529394919360c086019383018282801561062157602002820191906000526020600020905b81546001600160a01b03168152600190910190602001808311610603575b5050505050815250509050919050565b6006602052816000526040600020818154811061064d57600080fd5b90600052602060002001600091509150505481565b60008281526007602090815260408083206001600160a01b03851684529091529020545b92915050565b6106f260405180610140016040528060006001600160a01b03168152602001600060ff1681526020016000815260200160008152602001600081526020016000815260200160008152602001600081526020016000151581526020016000151581525090565b5060009081526003602081815260409283902083516101408101855281546001600160a01b038116825260ff600160a01b90910481169382019390935260018201549481019490945260028101546060850152918201546080840152600482015460a0840152600582015460c0840152600682015460e0840152600790910154808216151561010080850191909152900416151561012082015290565b6001600160a01b0381166000908152600560209081526040918290208054835181840281018401909452808452606093928301828280156107ef57602002820191906000526020600020905b8154815260200190600101908083116107db575b50505050509050919050565b6002546001600160a01b0316331461082e5760405162461bcd60e51b815260040161082590611c79565b60405180910390fd5b6108366116be565b6000818152600460205260409020600581015460ff16156108995760405162461bcd60e51b815260206004820152601860248201527f506f6f6c20616c726561647920646973747269627574656400000000000000006044820152606401610825565b806003015481600201546108ad9190611cd0565b4210156108f45760405162461bcd60e51b8152602060048201526015602482015274141bdbdb081c195c9a5bd9081b9bdd08195b991959605a1b6044820152606401610825565b600181015460008381526006602090815260408083208054825181850281018501909352808352849383018282801561094c57602002820191906000526020600020905b815481526020019060010190808311610938575b5050505050905060005b81518110156109d05760006003600084848151811061097757610977611ce3565b6020026020010151815260200190815260200160002090508060070160009054906101000a900460ff16806109b0575060008160040154115b156109c75760048101546109c49085611cd0565b93505b50600101610956565b50600484018290558115610b185760005b6006850154811015610b16576000856006018281548110610a0457610a04611ce3565b60009182526020822001546001600160a01b03169150805b8451811015610a8957600060036000878481518110610a3d57610a3d611ce3565b602090810291909101810151825281019190915260400160002080549091506001600160a01b03808616911603610a80576004810154610a7d9084611cd0565b92505b50600101610a1c565b508015610b0c57600085610a9d8884611cf9565b610aa79190611d26565b90506000610ab6600784611d26565b610ac190600a611cf9565b905060006064610ad18385611cf9565b610adb9190611d26565b610ae59084611cd0565b60008c81526007602090815260408083206001600160a01b038a1684529091529020555050505b50506001016109e1565b505b60058401805460ff1916600117905560405185907f97791d3ac1343e05805a2f905fa80b249c2ca58cf9fef455d4fa7ec13ce5832190610b5b9086815260200190565b60405180910390a250505050610b716001600055565b50565b60008181526004602090815260408083206006835281842080548351818602810186019094528084526060959294929392830182828015610bd457602002820191906000526020600020905b815481526020019060010190808311610bc0575b50505050509050600082600601805480602002602001604051908101604052809291908181526020018280548015610c3557602002820191906000526020600020905b81546001600160a01b03168152600190910190602001808311610c17575b505050505090506000815167ffffffffffffffff811115610c5857610c58611d3a565b604051908082528060200260200182016040528015610c81578160200160208202803683370190505b50905060005b8251811015610d41576000805b8551811015610d1957600060036000888481518110610cb557610cb5611ce3565b602002602001015181526020019081526020016000209050858481518110610cdf57610cdf611ce3565b602090810291909101015181546001600160a01b03918216911603610d10576004810154610d0d9084611cd0565b92505b50600101610c94565b5080838381518110610d2d57610d2d611ce3565b602090810291909101015250600101610c87565b5060005b8251811015610ec7576000610d5b826001611cd0565b90505b8351811015610ebe57828281518110610d7957610d79611ce3565b6020026020010151838281518110610d9357610d93611ce3565b60200260200101511115610eb6576000838381518110610db557610db5611ce3565b60200260200101519050838281518110610dd157610dd1611ce3565b6020026020010151848481518110610deb57610deb611ce3565b60200260200101818152505080848381518110610e0a57610e0a611ce3565b6020026020010181815250506000858481518110610e2a57610e2a611ce3565b60200260200101519050858381518110610e4657610e46611ce3565b6020026020010151868581518110610e6057610e60611ce3565b60200260200101906001600160a01b031690816001600160a01b03168152505080868481518110610e9357610e93611ce3565b60200260200101906001600160a01b031690816001600160a01b03168152505050505b600101610d5e565b50600101610d45565b509095945050505050565b610eda6116be565b600081815260076020908152604080832033845290915290205480610f365760405162461bcd60e51b81526020600482015260126024820152714e6f2072657761726420746f20636c61696d60701b6044820152606401610825565b60008281526007602090815260408083203380855292528083208390555183908381818185875af1925050503d8060008114610f8e576040519150601f19603f3d011682016040523d82523d6000602084013e610f93565b606091505b5050905080610fd65760405162461bcd60e51b815260206004820152600f60248201526e151c985b9cd9995c8819985a5b1959608a1b6044820152606401610825565b604080518481526020810184905233917ff01da32686223933d8a18a391060918c7f11a3648639edd87ae013e2e2731743910160405180910390a25050610b716001600055565b6002546001600160a01b031633146110475760405162461bcd60e51b815260040161082590611c79565b6000838152600360205260409020600781015460ff1661109f5760405162461bcd60e51b81526020600482015260136024820152724861626974206973206e6f742061637469766560681b6044820152606401610825565b80546001600160a01b03166110ed5760405162461bcd60e51b81526020600482015260146024820152731218589a5d08191bd95cc81b9bdd08195e1a5cdd60621b6044820152606401610825565b6006810154156111585760068101546111099062011940611cd0565b4210156111585760405162461bcd60e51b815260206004820152601860248201527f416c726561647920636865636b656420696e20746f64617900000000000000006044820152606401610825565b6000816006015411801561117c57506006810154611179906202a300611cd0565b42115b156111ce5760078101805460ff19169055600481015460405190815284907ffefa920cb6524f4a24e93e08cad071f6bd72a5b154f61ea46429df6c4876cb36906020015b60405180910390a250505050565b6004810180549060006111e083611d50565b919050555080600501548160040154111561120057600481015460058201555b426006820155600481015460405190815284907face05157c2c2e541f757661832e461481f06aec5918b9ddecb33a8bd4a32da63906020016111c0565b6001546001600160a01b031633146112a15760405162461bcd60e51b815260206004820152602160248201527f4f6e6c79206f776e65722063616e2063616c6c20746869732066756e6374696f6044820152603760f91b6064820152608401610825565b6001600160a01b0381166112ef5760405162461bcd60e51b8152602060048201526015602482015274496e76616c6964206167656e74206164647265737360581b6044820152606401610825565b600280546001600160a01b0319166001600160a01b0392909216919091179055565b6000341161136d5760405162461bcd60e51b815260206004820152602360248201527f5374616b6520616d6f756e74206d75737420626520677265617465722074686160448201526206e20360ec1b6064820152608401610825565b60078110156113be5760405162461bcd60e51b815260206004820181905260248201527f4475726174696f6e206d757374206265206174206c65617374203720646179736044820152606401610825565b60088054600091826113cf83611d50565b90915550905060006113e48362015180611cf9565b9050604051806101400160405280336001600160a01b031681526020018560ff168152602001348152602001428152602001828152602001600081526020016000815260200160008152602001600115158152602001600015158152506003600084815260200190815260200160002060008201518160000160006101000a8154816001600160a01b0302191690836001600160a01b0316021790555060208201518160000160146101000a81548160ff021916908360ff16021790555060408201518160010155606082015181600201556080820151816003015560a0820151816004015560c0820151816005015560e082015181600601556101008201518160070160006101000a81548160ff0219169083151502179055506101208201518160070160016101000a81548160ff02191690831515021790555090505060056000336001600160a01b03166001600160a01b03168152602001908152602001600020829080600181540180825580915050600190039060005260206000200160009091909190915055600061157b85836116e8565b6000818152600460205260408120919250805b60068301548110156115e457336001600160a01b03168360060182815481106115b9576115b9611ce3565b6000918252602090912001546001600160a01b0316036115dc57600191506115e4565b60010161158e565b508061161257600682018054600181018255600091825260209091200180546001600160a01b031916331790555b6000838152600660209081526040822080546001818101835591845291832090910187905583018054349290611649908490611cd0565b90915550506040805186815260ff89166020820152348183015260608101889052905133917f022dd619ee0d92140e5abde105761d6df71c05c4fcb761610ea0552064f91e6c919081900360800190a250505050505050565b6005602052816000526040600020818154811061064d57600080fd5b6002600054036116e157604051633ee5aeb560e01b815260040160405180910390fd5b6002600055565b6000806116f442611880565b905060015b600954811015611762576000818152600460205260409020805460ff878116911614801561172a5750848160030154145b80156117395750828160020154145b801561174a5750600581015460ff16155b15611759575091506106869050565b506001016116f9565b50600980546000918261177483611d50565b9190505590506040518060e001604052808660ff1681526020016000815260200183815260200185815260200160008152602001600015158152602001600067ffffffffffffffff8111156117cb576117cb611d3a565b6040519080825280602002602001820160405280156117f4578160200160208202803683370190505b5090526000828152600460208181526040928390208451815460ff90911660ff199182161782558583015160018301559385015160028201556060850151600382015560808501519281019290925560a0840151600583018054911515919094161790925560c083015180519192611874926006850192909101906118e3565b50919695505050505050565b6000806118906201518084611d26565b9050600060076118a1836003611cd0565b6118ab9190611d69565b90506118ba6201518085611d69565b6118c78262015180611cf9565b6118d19086611d7d565b6118db9190611d7d565b949350505050565b828054828255906000526020600020908101928215611938579160200282015b8281111561193857825182546001600160a01b0319166001600160a01b03909116178255602090920191600190910190611903565b50611944929150611948565b5090565b5b808211156119445760008155600101611949565b60006020828403121561196f57600080fd5b5035919050565b60006020808352610100830160ff855116828501528185015160408501526040850151606085015260608501516080850152608085015160a085015260a0850151151560c085015260c085015160e080860152818151808452610120870191508483019350600092505b80831015611a095783516001600160a01b031682529284019260019290920191908401906119e0565b509695505050505050565b80356001600160a01b0381168114611a2b57600080fd5b919050565b60008060408385031215611a4357600080fd5b82359150611a5360208401611a14565b90509250929050565b60008060408385031215611a6f57600080fd5b50508035926020909101359150565b81516001600160a01b0316815261014081016020830151611aa4602084018260ff169052565b5060408301516040830152606083015160608301526080830151608083015260a083015160a083015260c083015160c083015260e083015160e083015261010080840151611af58285018215159052565b5050610120928301511515919092015290565b600060208284031215611b1a57600080fd5b611b2382611a14565b9392505050565b6020808252825182820181905260009190848201906040850190845b81811015611b6257835183529284019291840191600101611b46565b50909695505050505050565b6020808252825182820181905260009190848201906040850190845b81811015611b625783516001600160a01b031683529284019291840191600101611b8a565b600080600060408486031215611bc457600080fd5b83359250602084013567ffffffffffffffff80821115611be357600080fd5b818601915086601f830112611bf757600080fd5b813581811115611c0657600080fd5b876020828501011115611c1857600080fd5b6020830194508093505050509250925092565b60008060408385031215611c3e57600080fd5b823560ff81168114611c4f57600080fd5b946020939093013593505050565b60008060408385031215611c7057600080fd5b611c4f83611a14565b60208082526021908201527f4f6e6c79206167656e742063616e2063616c6c20746869732066756e6374696f6040820152603760f91b606082015260800190565b634e487b7160e01b600052601160045260246000fd5b8082018082111561068657610686611cba565b634e487b7160e01b600052603260045260246000fd5b808202811582820484141761068657610686611cba565b634e487b7160e01b600052601260045260246000fd5b600082611d3557611d35611d10565b500490565b634e487b7160e01b600052604160045260246000fd5b600060018201611d6257611d62611cba565b5060010190565b600082611d7857611d78611d10565b500690565b8181038181111561068657610686611cba56fea2646970667358221220d3f66c8189b70839ca887dc1601b381a7f6da7b058798782d73f51a93522cbbc64736f6c63430008180033",
  "linkReferences": {},
  "deployedLinkReferences": {}
}