{
  "_format": "hh-sol-artifact-1",
  "contractName": "StreakBadge",
  "sourceName": "contracts/StreakBadge.sol",
  "abi": [
    {
      "inputs": [
        {
          "internalType": "address",
          "name": "_agent",
          "type": "address"
        }
      ],
      "stateMutability": "nonpayable",
      "type": "constructor"
    },
    {
      "inputs": [
        {
          "internalType": "address",
          "name": "sender",
          "type": "address"
        },
        {
          "internalType": "uint256",
          "name": "tokenId",
          "type": "uint256"
        },
        {
          "internalType": "address",
          "name": "owner",
          "type": "address"
        }
      ],
      "name": "ERC721IncorrectOwner",
      "type": "error"
    },
    {
      "inputs": [
        {
          "internalType": "address",
          "name": "operator",
          "type": "address"
        },
        {
          "internalType": "uint256",
          "name": "tokenId",
          "type": "uint256"
        }
      ],
      "name": "ERC721InsufficientApproval",
      "type": "error"
    },
    {
      "inputs": [
        {
          "internalType": "address",
          "name": "approver",
          "type": "address"
        }
      ],
      "name": "ERC721InvalidApprover",
      "type": "error"
    },
    {
      "inputs": [
        {
          "internalType": "address",
          "name": "operator",
          "type": "address"
        }
      ],
      "name": "ERC721InvalidOperator",
      "type": "error"
    },
    {
      "inputs": [
        {
          "internalType": "address",
          "name": "owner",
          "type": "address"
        }
      ],
      "name": "ERC721InvalidOwner",
      "type": "error"
    },
    {
      "inputs": [
        {
          "internalType": "address",
          "name": "receiver",
          "type": "address"
        }
      ],
      "name": "ERC721InvalidReceiver",
      "type": "error"
    },
    {
      "inputs": [
        {
          "internalType": "address",
          "name": "sender",
          "type": "address"
        }
      ],
      "name": "ERC721InvalidSender",
      "type": "error"
    },
    {
      "inputs": [
        {
          "internalType": "uint256",
          "name": "tokenId",
          "type": "uint256"
        }
      ],
      "name": "ERC721NonexistentToken",
      "type": "error"
    },
    {
      "inputs": [
        {
          "internalType": "address",
          "name": "owner",
          "type": "address"
        }
      ],
      "name": "OwnableInvalidOwner",
      "type": "error"
    },
    {
      "inputs": [
        {
          "internalType": "address",
          "name": "account",
          "type": "address"
        }
      ],
      "name": "OwnableUnauthorizedAccount",
      "type": "error"
    },
    {
      "anonymous": false,
      "inputs": [
        {
          "indexed": true,
          "internalType": "address",
          "name": "owner",
          "type": "address"
        },
        {
          "indexed": true,
          "internalType": "address",
          "name": "approved",
          "type": "address"
        },
        {
          "indexed": true,
          "internalType": "uint256",
          "name": "tokenId",
          "type": "uint256"
        }
      ],
      "name": "Approval",
      "type": "event"
    },
    {
      "anonymous": false,
      "inputs": [
        {
          "indexed": true,
          "internalType": "address",
          "name": "owner",
          "type": "address"
        },
        {
          "indexed": true,
          "internalType": "address",
          "name": "operator",
          "type": "address"
        },
        {
          "indexed": false,
          "internalType": "bool",
          "name": "approved",
          "type": "bool"
        }
      ],
      "name": "ApprovalForAll",
      "type": "event"
    },
    {
      "anonymous": false,
      "inputs": [
        {
          "indexed": true,
          "internalType": "address",
          "name": "to",
          "type": "address"
        },
        {
          "indexed": false,
          "internalType": "uint256",
          "name": "tokenId",
          "type": "uint256"
        },
        {
          "indexed": false,
          "internalType": "uint8",
          "name": "badgeType",
          "type": "uint8"
        },
        {
          "indexed": false,
          "internalType": "uint256",
          "name": "habitId",
          "type": "uint256"
        }
      ],
      "name": "BadgeMinted",
      "type": "event"
    },
    {
      "anonymous": false,
      "inputs": [
        {
          "indexed": false,
          "internalType": "uint256",
          "name": "_fromTokenId",
          "type": "uint256"
        },
        {
          "indexed": false,
          "internalType": "uint256",
          "name": "_toTokenId",
          "type": "uint256"
        }
      ],
      "name": "BatchMetadataUpdate",
      "type": "event"
    },
    {
      "anonymous": false,
      "inputs": [
        {
          "indexed": false,
          "internalType": "uint256",
          "name": "_tokenId",
          "type": "uint256"
        }
      ],
      "name": "MetadataUpdate",
      "type": "event"
    },
    {
      "anonymous": false,
      "inputs": [
        {
          "indexed": true,
          "internalType": "address",
          "name": "previousOwner",
          "type": "address"
        },
        {
          "indexed": true,
          "internalType": "address",
          "name": "newOwner",
          "type": "address"
        }
      ],
      "name": "OwnershipTransferred",
      "type": "event"
    },
    {
      "anonymous": false,
      "inputs": [
        {
          "indexed": true,
          "internalType": "address",
          "name": "from",
          "type": "address"
        },
        {
          "indexed": true,
          "internalType": "address",
          "name": "to",
          "type": "address"
        },
        {
          "indexed": true,
          "internalType": "uint256",
          "name": "tokenId",
          "type": "uint256"
        }
      ],
      "name": "Transfer",
      "type": "event"
    },
    {
      "inputs": [],
      "name": "agent",
      "outputs": [
        {
          "internalType": "address",
          "name": "",
          "type": "address"
        }
      ],
      "stateMutability": "view",
      "type": "function"
    },
    {
      "inputs": [
        {
          "internalType": "address",
          "name": "to",
          "type": "address"
        },
        {
          "internalType": "uint256",
          "name": "tokenId",
          "type": "uint256"
        }
      ],
      "name": "approve",
      "outputs": [],
      "stateMutability": "nonpayable",
      "type": "function"
    },
    {
      "inputs": [
        {
          "internalType": "uint256",
          "name": "",
          "type": "uint256"
        }
      ],
      "name": "badges",
      "outputs": [
        {
          "internalType": "enum StreakBadge.BadgeType",
          "name": "badgeType",
          "type": "uint8"
        },
        {
          "internalType": "uint256",
          "name": "mintedAt",
          "type": "uint256"
        },
        {
          "internalType": "uint256",
          "name": "habitId",
          "type": "uint256"
        },
        {
          "internalType": "address",
          "name": "recipient",
          "type": "address"
        }
      ],
      "stateMutability": "view",
      "type": "function"
    },
    {
      "inputs": [
        {
          "internalType": "address",
          "name": "owner",
          "type": "address"
        }
      ],
      "name": "balanceOf",
      "outputs": [
        {
          "internalType": "uint256",
          "name": "",
          "type": "uint256"
        }
      ],
      "stateMutability": "view",
      "type": "function"
    },
    {
      "inputs": [],
      "name": "core",
      "outputs": [
        {
          "internalType": "address",
          "name": "",
          "type": "address"
        }
      ],
      "stateMutability": "view",
      "type": "function"
    },
    {
      "inputs": [
        {
          "internalType": "uint256",
          "name": "tokenId",
          "type": "uint256"
        }
      ],
      "name": "getApproved",
      "outputs": [
        {
          "internalType": "address",
          "name": "",
          "type": "address"
        }
      ],
      "stateMutability": "view",
      "type": "function"
    },
    {
      "inputs": [
        {
          "internalType": "uint256",
          "name": "tokenId",
          "type": "uint256"
        }
      ],
      "name": "getBadge",
      "outputs": [
        {
          "components": [
            {
              "internalType": "enum StreakBadge.BadgeType",
              "name": "badgeType",
              "type": "uint8"
            },
            {
              "internalType": "uint256",
              "name": "mintedAt",
              "type": "uint256"
            },
            {
              "internalType": "uint256",
              "name": "habitId",
              "type": "uint256"
            },
            {
              "internalType": "address",
              "name": "recipient",
              "type": "address"
            }
          ],
          "internalType": "struct StreakBadge.Badge",
          "name": "",
          "type": "tuple"
        }
      ],
      "stateMutability": "view",
      "type": "function"
    },
    {
      "inputs": [
        {
          "internalType": "address",
          "name": "user",
          "type": "address"
        }
      ],
      "name": "getBadgesByUser",
      "outputs": [
        {
          "internalType": "uint256[]",
          "name": "",
          "type": "uint256[]"
        }
      ],
      "stateMutability": "view",
      "type": "function"
    },
    {
      "inputs": [
        {
          "internalType": "address",
          "name": "",
          "type": "address"
        },
        {
          "internalType": "uint8",
          "name": "",
          "type": "uint8"
        }
      ],
      "name": "hasBadge",
      "outputs": [
        {
          "internalType": "bool",
          "name": "",
          "type": "bool"
        }
      ],
      "stateMutability": "view",
      "type": "function"
    },
    {
      "inputs": [
        {
          "internalType": "address",
          "name": "owner",
          "type": "address"
        },
        {
          "internalType": "address",
          "name": "operator",
          "type": "address"
        }
      ],
      "name": "isApprovedForAll",
      "outputs": [
        {
          "internalType": "bool",
          "name": "",
          "type": "bool"
        }
      ],
      "stateMutability": "view",
      "type": "function"
    },
    {
      "inputs": [
        {
          "internalType": "address",
          "name": "to",
          "type": "address"
        },
        {
          "internalType": "uint8",
          "name": "badgeType",
          "type": "uint8"
        },
        {
          "internalType": "uint256",
          "name": "habitId",
          "type": "uint256"
        },
        {
          "internalType": "string",
          "name": "uri",
          "type": "string"
        }
      ],
      "name": "mintBadge",
      "outputs": [],
      "stateMutability": "nonpayable",
      "type": "function"
    },
    {
      "inputs": [],
      "name": "name",
      "outputs": [
        {
          "internalType": "string",
          "name": "",
          "type": "string"
        }
      ],
      "stateMutability": "view",
      "type": "function"
    },
    {
      "inputs": [],
      "name": "nextTokenId",
      "outputs": [
        {
          "internalType": "uint256",
          "name": "",
          "type": "uint256"
        }
      ],
      "stateMutability": "view",
      "type": "function"
    },
    {
      "inputs": [],
      "name": "owner",
      "outputs": [
        {
          "internalType": "address",
          "name": "",
          "type": "address"
        }
      ],
      "stateMutability": "view",
      "type": "function"
    },
    {
      "inputs": [
        {
          "internalType": "uint256",
          "name": "tokenId",
          "type": "uint256"
        }
      ],
      "name": "ownerOf",
      "outputs": [
        {
          "internalType": "address",
          "name": "",
          "type": "address"
        }
      ],
      "stateMutability": "view",
      "type": "function"
    },
    {
      "inputs": [],
      "name": "renounceOwnership",
      "outputs": [],
      "stateMutability": "nonpayable",
      "type": "function"
    },
    {
      "inputs": [
        {
          "internalType": "address",
          "name": "from",
          "type": "address"
        },
        {
          "internalType": "address",
          "name": "to",
          "type": "address"
        },
        {
          "internalType": "uint256",
          "name": "tokenId",
          "type": "uint256"
        }
      ],
      "name": "safeTransferFrom",
      "outputs": [],
      "stateMutability": "nonpayable",
      "type": "function"
    },
    {
      "inputs": [
        {
          "internalType": "address",
          "name": "from",
          "type": "address"
        },
        {
          "internalType": "address",
          "name": "to",
          "type": "address"
        },
        {
          "internalType": "uint256",
          "name": "tokenId",
          "type": "uint256"
        },
        {
          "internalType": "bytes",
          "name": "data",
          "type": "bytes"
        }
      ],
      "name": "safeTransferFrom",
      "outputs": [],
      "stateMutability": "nonpayable",
      "type": "function"
    },
    {
      "inputs": [
        {
          "internalType": "address",
          "name": "_agent",
          "type": "address"
        }
      ],
      "name": "setAgent",
      "outputs": [],
      "stateMutability": "nonpayable",
      "type": "function"
    },
    {
      "inputs": [
        {
          "internalType": "address",
          "name": "operator",
          "type": "address"
        },
        {
          "internalType": "bool",
          "name": "approved",
          "type": "bool"
        }
      ],
      "name": "setApprovalForAll",
      "outputs": [],
      "stateMutability": "nonpayable",
      "type": "function"
    },
    {
      "inputs": [
        {
          "internalType": "address",
          "name": "_core",
          "type": "address"
        }
      ],
      "name": "setCore",
      "outputs": [],
      "stateMutability": "nonpayable",
      "type": "function"
    },
    {
      "inputs": [
        {
          "internalType": "bytes4",
          "name": "interfaceId",
          "type": "bytes4"
        }
      ],
      "name": "supportsInterface",
      "outputs": [
        {
          "internalType": "bool",
          "name": "",
          "type": "bool"
        }
      ],
      "stateMutability": "view",
      "type": "function"
    },
    {
      "inputs": [],
      "name": "symbol",
      "outputs": [
        {
          "internalType": "string",
          "name": "",
          "type": "string"
        }
      ],
      "stateMutability": "view",
      "type": "function"
    },
    {
      "inputs": [
        {
          "internalType": "uint256",
          "name": "",
          "type": "uint256"
        }
      ],
      "name": "thresholds",
      "outputs": [
        {
          "internalType": "uint256",
          "name": "",
          "type": "uint256"
        }
      ],
      "stateMutability": "view",
      "type": "function"
    },
    {
      "inputs": [
        {
          "internalType": "uint256",
          "name": "tokenId",
          "type": "uint256"
        }
      ],
      "name": "tokenURI",
      "outputs": [
        {
          "internalType": "string",
          "name": "",
          "type": "string"
        }
      ],
      "stateMutability": "view",
      "type": "function"
    },
    {
      "inputs": [
        {
          "internalType": "address",
          "name": "from",
          "type": "address"
        },
        {
          "internalType": "address",
          "name": "to",
          "type": "address"
        },
        {
          "internalType": "uint256",
          "name": "tokenId",
          "type": "uint256"
        }
      ],
      "name": "transferFrom",
      "outputs": [],
      "stateMutability": "nonpayable",
      "type": "function"
    },
    {
      "inputs": [
        {
          "internalType": "address",
          "name": "newOwner",
          "type": "address"
        }
      ],
      "name": "transferOwnership",
      "outputs": [],
      "stateMutability": "nonpayable",
      "type": "function"
    },
    {
      "inputs": [
        {
          "internalType": "address",
          "name": "",
          "type": "address"
        },
        {
          "internalType": "uint256",
          "name": "",
          "type": "uint256"
        }
      ],
      "name": "userBadges",
      "outputs": [
        {
          "internalType": "uint256",
          "name": "",
          "type": "uint256"
        }
      ],
      "stateMutability": "view",
      "type": "function"
    }
  ],
  "bytecode": "0x61012060405260016080908152600760a052601e60c052606460e05261016d610100526200003290600e906005620001de565b503480156200004057600080fd5b50604051620020ea380380620020ea83398101604081905262000063916200023e565b336040518060400160405280601181526020017053747265616b426561737420426164676560781b8152506040518060400160405280600381526020016229a12160e91b8152508160009081620000bb919062000317565b506001620000ca828262000317565b5050506001600160a01b038116620000fd57604051631e4fbdf760e01b8152600060048201526024015b60405180910390fd5b62000108816200018c565b506001600160a01b038116620001615760405162461bcd60e51b815260206004820152601560248201527f496e76616c6964206167656e74206164647265737300000000000000000000006044820152606401620000f4565b600c80546001600160a01b0319166001600160a01b03929092169190911790556001600b55620003e3565b600780546001600160a01b038381166001600160a01b0319831681179093556040519116919082907f8be0079c531659141344cd1fd0a4f28419497f9722a3daafe3b4186f6b6457e090600090a35050565b826005810192821562000215579160200282015b8281111562000215578251829061ffff16905591602001919060010190620001f2565b506200022392915062000227565b5090565b5b8082111562000223576000815560010162000228565b6000602082840312156200025157600080fd5b81516001600160a01b03811681146200026957600080fd5b9392505050565b634e487b7160e01b600052604160045260246000fd5b600181811c908216806200029b57607f821691505b602082108103620002bc57634e487b7160e01b600052602260045260246000fd5b50919050565b601f82111562000312576000816000526020600020601f850160051c81016020861015620002ed5750805b601f850160051c820191505b818110156200030e57828155600101620002f9565b5050505b505050565b81516001600160401b0381111562000333576200033362000270565b6200034b8162000344845462000286565b84620002c2565b602080601f8311600181146200038357600084156200036a5750858301515b600019600386901b1c1916600185901b1785556200030e565b600085815260208120601f198616915b82811015620003b45788860151825594840194600190910190840162000393565b5085821015620003d35787850151600019600388901b60f8161c191681555b5050505050600190811b01905550565b611cf780620003f36000396000f3fe608060405234801561001057600080fd5b50600436106101c45760003560e01c80638da5cb5b116100f9578063c87b56dd11610097578063e985e9c511610071578063e985e9c514610422578063f2f4eb2614610435578063f2fde38b14610448578063f5ff5c761461045b57600080fd5b8063c87b56dd146103e9578063df91cc23146103fc578063e351d4371461040f57600080fd5b8063a22cb465116100d3578063a22cb4651461039d578063b6c22611146103b0578063b88d4fde146103c3578063bcf685ed146103d657600080fd5b80638da5cb5b1461033257806395d89b411461034357806398e36d8b1461034b57600080fd5b806342842e0e11610166578063715018a611610140578063715018a6146102ee57806375794a3c146102f657806380009630146102ff5780638d8386221461031257600080fd5b806342842e0e146102a75780636352211e146102ba57806370a08231146102cd57600080fd5b8063095ea7b3116101a2578063095ea7b3146102315780631467b9391461024657806323b872dd146102665780633af0c6881461027957600080fd5b806301ffc9a7146101c957806306fdde03146101f1578063081812fc14610206575b600080fd5b6101dc6101d7366004611675565b61046e565b60405190151581526020015b60405180910390f35b6101f961047f565b6040516101e891906116e2565b6102196102143660046116f5565b610511565b6040516001600160a01b0390911681526020016101e8565b61024461023f36600461172a565b61053a565b005b610259610254366004611754565b610549565b6040516101e8919061176f565b6102446102743660046117b3565b6105b5565b6101dc610287366004611800565b600a60209081526000928352604080842090915290825290205460ff1681565b6102446102b53660046117b3565b610645565b6102196102c83660046116f5565b610665565b6102e06102db366004611754565b610670565b6040519081526020016101e8565b6102446106b8565b6102e0600b5481565b61024461030d366004611754565b6106cc565b6103256103203660046116f5565b610743565b6040516101e8919061186b565b6007546001600160a01b0316610219565b6101f9610835565b61038d6103593660046116f5565b600860205260009081526040902080546001820154600283015460039093015460ff9092169290916001600160a01b031684565b6040516101e894939291906118aa565b6102446103ab3660046118dc565b610844565b6102e06103be3660046116f5565b61084f565b6102446103d136600461192e565b610866565b6102446103e4366004611754565b61087e565b6101f96103f73660046116f5565b6108f6565b6102e061040a36600461172a565b610901565b61024461041d366004611a0a565b610932565b6101dc610430366004611aa5565b610c51565b600d54610219906001600160a01b031681565b610244610456366004611754565b610c7f565b600c54610219906001600160a01b031681565b600061047982610cbd565b92915050565b60606000805461048e90611acf565b80601f01602080910402602001604051908101604052809291908181526020018280546104ba90611acf565b80156105075780601f106104dc57610100808354040283529160200191610507565b820191906000526020600020905b8154815290600101906020018083116104ea57829003601f168201915b5050505050905090565b600061051c82610ce2565b506000828152600460205260409020546001600160a01b0316610479565b610545828233610d1b565b5050565b6001600160a01b0381166000908152600960209081526040918290208054835181840281018401909452808452606093928301828280156105a957602002820191906000526020600020905b815481526020019060010190808311610595575b50505050509050919050565b6001600160a01b0382166105e457604051633250574960e11b8152600060048201526024015b60405180910390fd5b60006105f1838333610d28565b9050836001600160a01b0316816001600160a01b03161461063f576040516364283d7b60e01b81526001600160a01b03808616600483015260248201849052821660448201526064016105db565b50505050565b61066083838360405180602001604052806000815250610866565b505050565b600061047982610ce2565b60006001600160a01b03821661069c576040516322718ad960e21b8152600060048201526024016105db565b506001600160a01b031660009081526003602052604090205490565b6106c0610e21565b6106ca6000610e4e565b565b6106d4610e21565b6001600160a01b0381166107215760405162461bcd60e51b8152602060048201526014602482015273496e76616c696420636f7265206164647265737360601b60448201526064016105db565b600d80546001600160a01b0319166001600160a01b0392909216919091179055565b6040805160808101825260008082526020820181905291810182905260608101919091526000828152600260205260409020546001600160a01b03166107c25760405162461bcd60e51b815260206004820152601460248201527310985919d948191bd95cc81b9bdd08195e1a5cdd60621b60448201526064016105db565b600082815260086020526040908190208151608081019092528054829060ff1660048111156107f3576107f3611833565b600481111561080457610804611833565b815260018201546020820152600282015460408201526003909101546001600160a01b031660609091015292915050565b60606001805461048e90611acf565b610545338383610ea0565b600e816005811061085f57600080fd5b0154905081565b6108718484846105b5565b61063f3385858585610f3f565b610886610e21565b6001600160a01b0381166108d45760405162461bcd60e51b8152602060048201526015602482015274496e76616c6964206167656e74206164647265737360581b60448201526064016105db565b600c80546001600160a01b0319166001600160a01b0392909216919091179055565b60606104798261106a565b6009602052816000526040600020818154811061091d57600080fd5b90600052602060002001600091509150505481565b600c546001600160a01b0316331461098c5760405162461bcd60e51b815260206004820152601a60248201527f4f6e6c79206167656e742063616e206d696e742062616467657300000000000060448201526064016105db565b60058460ff16106109d45760405162461bcd60e51b8152602060048201526012602482015271496e76616c6964206261646765207479706560701b60448201526064016105db565b6001600160a01b038516610a2a5760405162461bcd60e51b815260206004820152601b60248201527f43616e6e6f74206d696e7420746f207a65726f2061646472657373000000000060448201526064016105db565b6001600160a01b0385166000908152600a6020908152604080832060ff80891685529252909120541615610aa05760405162461bcd60e51b815260206004820181905260248201527f5573657220616c7265616479206861732074686973206261646765207479706560448201526064016105db565b600b805460009182610ab183611b09565b919050559050610ac1868261117b565b610b018184848080601f01602080910402602001604051908101604052809392919081815260200183838082843760009201919091525061119592505050565b60405180608001604052808660ff166004811115610b2157610b21611833565b6004811115610b3257610b32611833565b81524260208083019190915260408083018890526001600160a01b038a16606090930192909252600084815260089091522081518154829060ff19166001836004811115610b8257610b82611833565b02179055506020828101516001838101919091556040808501516002850155606094850151600390940180546001600160a01b0319166001600160a01b03958616179055928a166000818152600984528481208054808501825590825284822001879055818152600a845284812060ff8c1680835290855290859020805460ff191690931790925583518681529283019190915291810187905290917ff6b70dedb47bc6e8680e80b2d7055aedd55e5598da29758ae2b17b4b13342239910160405180910390a2505050505050565b6001600160a01b03918216600090815260056020908152604080832093909416825291909152205460ff1690565b610c87610e21565b6001600160a01b038116610cb157604051631e4fbdf760e01b8152600060048201526024016105db565b610cba81610e4e565b50565b60006001600160e01b03198216632483248360e11b14806104795750610479826111e5565b6000818152600260205260408120546001600160a01b03168061047957604051637e27328960e01b8152600481018490526024016105db565b6106608383836001611235565b6000828152600260205260408120546001600160a01b0390811690831615610d5557610d5581848661133b565b6001600160a01b03811615610d9357610d72600085600080611235565b6001600160a01b038116600090815260036020526040902080546000190190555b6001600160a01b03851615610dc2576001600160a01b0385166000908152600360205260409020805460010190555b60008481526002602052604080822080546001600160a01b0319166001600160a01b0389811691821790925591518793918516917fddf252ad1be2c89b69c2b068fc378daa952ba7f163c4a11628f55a4df523b3ef91a4949350505050565b6007546001600160a01b031633146106ca5760405163118cdaa760e01b81523360048201526024016105db565b600780546001600160a01b038381166001600160a01b0319831681179093556040519116919082907f8be0079c531659141344cd1fd0a4f28419497f9722a3daafe3b4186f6b6457e090600090a35050565b6001600160a01b038216610ed257604051630b61174360e31b81526001600160a01b03831660048201526024016105db565b6001600160a01b03838116600081815260056020908152604080832094871680845294825291829020805460ff191686151590811790915591519182527f17307eab39ab6107e8899845ad3d59bd9653f200f220920489ca2b5937696c31910160405180910390a3505050565b6001600160a01b0383163b1561106357604051630a85bd0160e11b81526001600160a01b0384169063150b7a0290610f81908890889087908790600401611b30565b6020604051808303816000875af1925050508015610fbc575060408051601f3d908101601f19168201909252610fb991810190611b6d565b60015b611025573d808015610fea576040519150601f19603f3d011682016040523d82523d6000602084013e610fef565b606091505b50805160000361101d57604051633250574960e11b81526001600160a01b03851660048201526024016105db565b805160208201fd5b6001600160e01b03198116630a85bd0160e11b1461106157604051633250574960e11b81526001600160a01b03851660048201526024016105db565b505b5050505050565b606061107582610ce2565b506000828152600660205260408120805461108f90611acf565b80601f01602080910402602001604051908101604052809291908181526020018280546110bb90611acf565b80156111085780601f106110dd57610100808354040283529160200191611108565b820191906000526020600020905b8154815290600101906020018083116110eb57829003601f168201915b50505050509050600061112660408051602081019091526000815290565b90508051600003611138575092915050565b81511561116a578082604051602001611152929190611b8a565b60405160208183030381529060405292505050919050565b6111738461139f565b949350505050565b610545828260405180602001604052806000815250611414565b60008281526006602052604090206111ad8282611c01565b506040518281527ff8e1a15aba9398e019f0b49df1a4fde98ee17ae345cb5f6b5e2c27f5033e8ce79060200160405180910390a15050565b60006001600160e01b031982166380ac58cd60e01b148061121657506001600160e01b03198216635b5e139f60e01b145b8061047957506301ffc9a760e01b6001600160e01b0319831614610479565b808061124957506001600160a01b03821615155b1561130b57600061125984610ce2565b90506001600160a01b038316158015906112855750826001600160a01b0316816001600160a01b031614155b801561129857506112968184610c51565b155b156112c15760405163a9fbf51f60e01b81526001600160a01b03841660048201526024016105db565b81156113095783856001600160a01b0316826001600160a01b03167f8c5be1e5ebec7d5bd14f71427d1e84f3dd0314c0f7b2291e5b200ac8c7c3b92560405160405180910390a45b505b5050600090815260046020526040902080546001600160a01b0319166001600160a01b0392909216919091179055565b61134683838361142c565b610660576001600160a01b03831661137457604051637e27328960e01b8152600481018290526024016105db565b60405163177e802f60e01b81526001600160a01b0383166004820152602481018290526044016105db565b60606113aa82610ce2565b5060006113c260408051602081019091526000815290565b905060008151116113e2576040518060200160405280600081525061140d565b806113ec8461148f565b6040516020016113fd929190611b8a565b6040516020818303038152906040525b9392505050565b61141e8383611522565b610660336000858585610f3f565b60006001600160a01b038316158015906111735750826001600160a01b0316846001600160a01b0316148061146657506114668484610c51565b806111735750506000908152600460205260409020546001600160a01b03908116911614919050565b6060600061149c83611587565b600101905060008167ffffffffffffffff8111156114bc576114bc611918565b6040519080825280601f01601f1916602001820160405280156114e6576020820181803683370190505b5090508181016020015b600019016f181899199a1a9b1b9c1cb0b131b232b360811b600a86061a8153600a85049450846114f057509392505050565b6001600160a01b03821661154c57604051633250574960e11b8152600060048201526024016105db565b600061155a83836000610d28565b90506001600160a01b03811615610660576040516339e3563760e11b8152600060048201526024016105db565b60008072184f03e93ff9f4daa797ed6e38ed64bf6a1f0160401b83106115c65772184f03e93ff9f4daa797ed6e38ed64bf6a1f0160401b830492506040015b6d04ee2d6d415b85acef810000000083106115f2576d04ee2d6d415b85acef8100000000830492506020015b662386f26fc10000831061161057662386f26fc10000830492506010015b6305f5e1008310611628576305f5e100830492506008015b612710831061163c57612710830492506004015b6064831061164e576064830492506002015b600a83106104795760010192915050565b6001600160e01b031981168114610cba57600080fd5b60006020828403121561168757600080fd5b813561140d8161165f565b60005b838110156116ad578181015183820152602001611695565b50506000910152565b600081518084526116ce816020860160208601611692565b601f01601f19169290920160200192915050565b60208152600061140d60208301846116b6565b60006020828403121561170757600080fd5b5035919050565b80356001600160a01b038116811461172557600080fd5b919050565b6000806040838503121561173d57600080fd5b6117468361170e565b946020939093013593505050565b60006020828403121561176657600080fd5b61140d8261170e565b6020808252825182820181905260009190848201906040850190845b818110156117a75783518352928401929184019160010161178b565b50909695505050505050565b6000806000606084860312156117c857600080fd5b6117d18461170e565b92506117df6020850161170e565b9150604084013590509250925092565b803560ff8116811461172557600080fd5b6000806040838503121561181357600080fd5b61181c8361170e565b915061182a602084016117ef565b90509250929050565b634e487b7160e01b600052602160045260246000fd5b6005811061186757634e487b7160e01b600052602160045260246000fd5b9052565b600060808201905061187e828451611849565b602083015160208301526040830151604083015260018060a01b03606084015116606083015292915050565b608081016118b88287611849565b602082019490945260408101929092526001600160a01b0316606090910152919050565b600080604083850312156118ef57600080fd5b6118f88361170e565b91506020830135801515811461190d57600080fd5b809150509250929050565b634e487b7160e01b600052604160045260246000fd5b6000806000806080858703121561194457600080fd5b61194d8561170e565b935061195b6020860161170e565b925060408501359150606085013567ffffffffffffffff8082111561197f57600080fd5b818701915087601f83011261199357600080fd5b8135818111156119a5576119a5611918565b604051601f8201601f19908116603f011681019083821181831017156119cd576119cd611918565b816040528281528a60208487010111156119e657600080fd5b82602086016020830137600060208483010152809550505050505092959194509250565b600080600080600060808688031215611a2257600080fd5b611a2b8661170e565b9450611a39602087016117ef565b935060408601359250606086013567ffffffffffffffff80821115611a5d57600080fd5b818801915088601f830112611a7157600080fd5b813581811115611a8057600080fd5b896020828501011115611a9257600080fd5b9699959850939650602001949392505050565b60008060408385031215611ab857600080fd5b611ac18361170e565b915061182a6020840161170e565b600181811c90821680611ae357607f821691505b602082108103611b0357634e487b7160e01b600052602260045260246000fd5b50919050565b600060018201611b2957634e487b7160e01b600052601160045260246000fd5b5060010190565b6001600160a01b0385811682528416602082015260408101839052608060608201819052600090611b63908301846116b6565b9695505050505050565b600060208284031215611b7f57600080fd5b815161140d8161165f565b60008351611b9c818460208801611692565b835190830190611bb0818360208801611692565b01949350505050565b601f821115610660576000816000526020600020601f850160051c81016020861015611be25750805b601f850160051c820191505b8181101561106157828155600101611bee565b815167ffffffffffffffff811115611c1b57611c1b611918565b611c2f81611c298454611acf565b84611bb9565b602080601f831160018114611c645760008415611c4c5750858301515b600019600386901b1c1916600185901b178555611061565b600085815260208120601f198616915b82811015611c9357888601518255948401946001909101908401611c74565b5085821015611cb15787850151600019600388901b60f8161c191681555b5050505050600190811b0190555056fea264697066735822122066345fe85272f8da2f127e8ac5785612b19953ac82ce3cc18f630f681a4fc68764736f6c63430008180033",
  "linkReferences": {},
  "deployedLinkReferences": {}
}